{
  "contractName": "Cruds",
  "abi": [
    {
      "inputs": [
        {
          "internalType": "string",
          "name": "doc_cid",
          "type": "string"
        }
      ],
      "name": "addDoctor",
      "outputs": [],
      "stateMutability": "nonpayable",
      "type": "function"
    },
    {
      "inputs": [],
      "name": "getDoctor",
      "outputs": [
        {
          "internalType": "string[]",
          "name": "",
          "type": "string[]"
        }
      ],
      "stateMutability": "view",
      "type": "function"
    },
    {
      "inputs": [
        {
          "internalType": "string",
          "name": "patient_cid",
          "type": "string"
        }
      ],
      "name": "addPatient",
      "outputs": [],
      "stateMutability": "nonpayable",
      "type": "function"
    },
    {
      "inputs": [],
      "name": "getPatient",
      "outputs": [
        {
          "internalType": "string[]",
          "name": "",
          "type": "string[]"
        }
      ],
      "stateMutability": "view",
      "type": "function"
    }
  ],
  "bytecode": "0x6080604052348015600e575f80fd5b5061072c8061001c5f395ff3fe608060405234801561000f575f80fd5b506004361061004a575f3560e01c80630be617001461004e5780633aaa5920146100635780637b0f9a3614610081578063fb87cf9414610089575b5f80fd5b61006161005c36600461046c565b61009c565b005b61006b6101ab565b604051610078919061051f565b60405180910390f35b61006b61027e565b61006161009736600461046c565b610349565b5f5b5f5481101561016e575f8082815481106100ba576100ba6105a3565b905f5260205f200180546100cd906105b7565b80601f01602080910402602001604051908101604052809291908181526020018280546100f9906105b7565b80156101445780601f1061011b57610100808354040283529160200191610144565b820191905f5260205f20905b81548152906001019060200180831161012757829003601f168201915b50505050509050828051906020012081805190602001200361016557505050565b5060010161009e565b505f80546001810182559080527f290decd9548b62a8d60345a988386fc84ba6bc95484008f6362f93160ef3e563016101a7828261063b565b5050565b60605f805480602002602001604051908101604052809291908181526020015f905b82821015610275578382905f5260205f200180546101ea906105b7565b80601f0160208091040260200160405190810160405280929190818152602001828054610216906105b7565b80156102615780601f1061023857610100808354040283529160200191610261565b820191905f5260205f20905b81548152906001019060200180831161024457829003601f168201915b5050505050815260200190600101906101cd565b50505050905090565b60606001805480602002602001604051908101604052809291908181526020015f905b82821015610275578382905f5260205f200180546102be906105b7565b80601f01602080910402602001604051908101604052809291908181526020018280546102ea906105b7565b80156103355780601f1061030c57610100808354040283529160200191610335565b820191905f5260205f20905b81548152906001019060200180831161031857829003601f168201915b5050505050815260200190600101906102a1565b5f5b60015481101561041d575f60018281548110610369576103696105a3565b905f5260205f2001805461037c906105b7565b80601f01602080910402602001604051908101604052809291908181526020018280546103a8906105b7565b80156103f35780601f106103ca576101008083540402835291602001916103f3565b820191905f5260205f20905b8154815290600101906020018083116103d657829003601f168201915b50505050509050828051906020012081805190602001200361041457505050565b5060010161034b565b506001805480820182555f919091527fb10e2d527612073b26eecdfd717e6a320cf44b4afac2b0732d9fcbe2b7fa0cf6016101a7828261063b565b634e487b7160e01b5f52604160045260245ffd5b5f6020828403121561047c575f80fd5b813567ffffffffffffffff811115610492575f80fd5b8201601f810184136104a2575f80fd5b803567ffffffffffffffff8111156104bc576104bc610458565b604051601f8201601f19908116603f0116810167ffffffffffffffff811182821017156104eb576104eb610458565b604052818152828201602001861015610502575f80fd5b816020840160208301375f91810160200191909152949350505050565b5f602082016020835280845180835260408501915060408160051b8601019250602086015f5b8281101561059757603f19878603018452815180518087528060208301602089015e5f602082890101526020601f19601f83011688010196505050602082019150602084019350600181019050610545565b50929695505050505050565b634e487b7160e01b5f52603260045260245ffd5b600181811c908216806105cb57607f821691505b6020821081036105e957634e487b7160e01b5f52602260045260245ffd5b50919050565b601f82111561063657805f5260205f20601f840160051c810160208510156106145750805b601f840160051c820191505b81811015610633575f8155600101610620565b50505b505050565b815167ffffffffffffffff81111561065557610655610458565b6106698161066384546105b7565b846105ef565b6020601f82116001811461069b575f83156106845750848201515b5f19600385901b1c1916600184901b178455610633565b5f84815260208120601f198516915b828110156106ca57878501518255602094850194600190920191016106aa565b50848210156106e757868401515f19600387901b60f8161c191681555b50505050600190811b0190555056fea2646970667358221220d72e4d186e4f99b7aca5f40d65dadef34dd2531443f31b1e01fa5779c41f4fe664736f6c634300081a0033",
  "immutableReferences": {},
  "source": "// SPDX-License-Identifier: MIT\r\npragma solidity ^0.8.19;\r\n\r\ncontract Cruds {\r\n    string[] doctors;\r\n    string[] patients;\r\n\r\n    function addDoctor(string memory doc_cid) public {\r\n        for (uint i = 0; i < doctors.length; i++) {\r\n            string memory x = doctors[i];\r\n            if (keccak256(bytes(x)) == keccak256(bytes(doc_cid))) return;\r\n        }\r\n        doctors.push(doc_cid);\r\n    }\r\n\r\n    function getDoctor() public view returns (string[] memory) {\r\n        return doctors;\r\n    }\r\n\r\n    function addPatient(string memory patient_cid) public {\r\n        for (uint i = 0; i < patients.length; i++) {\r\n            string memory x = patients[i];\r\n            if (keccak256(bytes(x)) == keccak256(bytes(patient_cid))) return;\r\n        }\r\n        patients.push(patient_cid);\r\n    }\r\n\r\n    function getPatient() public view returns (string[] memory) {\r\n        return patients;\r\n    }\r\n}",
  "sourcePath": "C:\\Users\\Rohan\\special_topics\\backend\\contracts\\Cruds.sol",
  "compiler": {
    "name": "solc",
    "version": "0.8.26+commit.8a97fa7a.Emscripten.clang"
  },
  "schemaVersion": "3.4.16",
  "updatedAt": "2024-06-07T22:45:58.881Z",
  "devdoc": {
    "kind": "dev",
    "methods": {},
    "version": 1
  },
  "userdoc": {
    "kind": "user",
    "methods": {},
    "version": 1
  }
}